:020000040000FA
:10000000850ED56EF294F29A938A938EAC84190E73
:10001000AF6EB06AAC8AAB88AC98AB8E006A016AEE
:10002000036A9EAA17EF00F0AECF02F0032A035234
:1000300002E01DEF00F032EF00F004C001F0000E0E
:10004000046227EF00F0010E046E2AEF00F0046A4C
:100050002AEF00F0045202E030EF00F032EF00F03F
:1000600001C002F0F2A4A0EF00F0F294C20ED76E2D
:10007000F60ED66E07C004F0010E072604C007F086
:1000800008C004F03C0E08624AEF00F0010E086E52
:100090004DEF00F0086A4DEF00F0085202E053EF18
:1000A00000F087EF00F0046A09C005F0010E092690
:1000B00005C009F00AC005F03C0E0A6264EF00F0CA
:1000C000010E0A6E67EF00F00A6A67EF00F00A524D
:1000D00002E06DEF00F087EF00F00BC006F0010EBC
:1000E0000B2606C00BF00CC006F0180E0C627DEF5C
:1000F00000F0010E0C6E80EF00F00C6A80EF00F053
:100100000C5202E086EF00F087EF00F0066A0CC0A8
:1001100000F0000E0C6291EF00F0010E0C6E94EFF7
:1001200000F00C6A94EF00F00C5202E09AEF00F03D
:10013000A0EF00F00DC004F00EC005F00FC006F0F7
:0401400010EF00F0CC
:020000040030CA
:0E0000000008191A0000800003C0030003402E
:00000001FF
