:020000040000FA
:10000000850ED56EF294F29A938A938EAC84190E73
:10001000AF6EB06AAC8AAB88AC98AB8E006A016AEE
:10002000036A9EAA17EF00F0AECF02F0032A035234
:1000300002E01DEF00F02FEF00F0000E016225EF4F
:1000400000F0010E046E28EF00F0046A28EF00F0C3
:1000500004B02DEF00F02FEF00F001C002F0046AB1
:10006000000E006238EF00F0010E056E3BEF00F06D
:10007000056A3BEF00F005B040EF00F042EF00F002
:100080009BEF00F0040E00624AEF00F0010E056ED7
:100090004DEF00F0056A4DEF00F005B052EF00F0B3
:1000A00053EF00F00468030E00625BEF00F0010EF6
:1000B000056E5EEF00F0056A5EEF00F005B063EFDD
:1000C00000F065EF00F004C00AF0020E00626DEF70
:1000D00000F0010E056E70EF00F0056A70EF00F0A1
:1000E00005B075EF00F077EF00F004C009F0010EE5
:1000F00000627FEF00F0010E056E82EF00F0056AEE
:1001000082EF00F005B087EF00F089EF00F004C047
:1001100008F09EA88FEF00F004C0ADFF032A035241
:1001200002E095EF00F09BEF00F00DC000F0010E33
:100130000D5E00C00DF0F2A4FFEF00F0F294C20ECD
:10014000D76EF60ED66E10C00DF0010E10260DC043
:1001500010F03C0E0D62B1EF00F0010E056EB4EF31
:1001600000F0056AB4EF00F005B0B9EF00F0E7EF7A
:1001700000F00D6A12C00EF0010E12260EC012F031
:100180003C0E0E62C8EF00F0010E056ECBEF00F0E2
:10019000056ACBEF00F005B0D0EF00F0E7EF00F01C
:1001A00014C00FF0010E14260FC014F0180E0F62C9
:1001B000DEEF00F0010E056EE1EF00F0056AE1EF01
:1001C00000F005B0E6EF00F0E7EF00F00F6A000E78
:1001D0000062EFEF00F0010E056EF2EF00F0056A2D
:1001E000F2EF00F005B0F7EF00F0FFEF00F008C00D
:1001F0000DF009C00EF00AC00FF0040E006E10EFF3
:0202000000F00C
:020000040030CA
:0E0000000008191A0000800003C0030003402E
:00000001FF
