:020000040000FA
:10000000500ED36E7E6A7F6A946A826A8B6A816AB6
:100010008A6A936A8B900000000000008B820000C7
:10002000000000008B800000000000008B900000AA
:10003000000000008B820000000000008B800000A8
:10004000000000008B900000000000008B82000088
:10005000000000008B800000000000008B9000007A
:10006000000000008B820000000000008B80000078
:10007000000000008B900000000000008B82000058
:10008000000000008B800000000000008B9000004A
:10009000000000008B820000000000008B80000048
:1000A000000000008B900000000000008B82000028
:1000B000000000008B800000000000008B9000001A
:1000C000000000008B820000000000008B80000018
:1000D00000000000056A066A076A850ED56EF29474
:1000E000F29A938A938EAC84190EAF6EB06AAC8A82
:1000F000AB88AC98AB8E006A016A026A036A046A34
:10010000096A9EAA87EF00F0AECF08F0092A0952CB
:1001100002E08DEF00F09FEF00F0000E046295EF1B
:1001200000F0010E0A6E98EF00F00A6A98EF00F0F6
:100130000AB09DEF00F09FEF00F008C004F00A6ADB
:10014000000E0062A8EF00F0010E0B6EABEF00F0A6
:100150000B6AABEF00F00BB0B0EF00F0B2EF00F0C5
:100160000BEF01F0040E0062BAEF00F0010E0B6E0F
:10017000BDEF00F00B6ABDEF00F00BB0C2EF00F076
:10018000C3EF00F00A68030E0062CBEF00F0010E2F
:100190000B6ECEEF00F00B6ACEEF00F00BB0D3EF9A
:1001A00000F0D5EF00F003C00AF0020E0062DDEFB0
:1001B00000F0010E0B6EE0EF00F00B6AE0EF00F0D4
:1001C0000BB0E5EF00F0E7EF00F002C00AF0010E1F
:1001D0000062EFEF00F0010E0B6EF2EF00F00B6A21
:1001E000F2EF00F00BB0F7EF00F0F9EF00F001C014
:1001F0000AF09EA8FFEF00F00AC0ADFF092A0952DD
:1002000002E005EF01F00BEF01F000C010F0010E6D
:10021000105E10C000F0F2A400EF02F0F294C20EE3
:10022000D76EF60ED66E05C010F0010E102610C067
:1002300005F03C0E056221EF01F0010E0B6E24EF7C
:1002400001F00B6A24EF01F00BB029EF01F058EF39
:1002500001F0056A06C012F0010E122612C006F067
:100260003C0E066238EF01F0010E0B6E3BEF01F021
:100270000B6A3BEF01F00BB040EF01F058EF01F0DB
:10028000066A07C014F0010E142614C007F0180EF9
:1002900007624FEF01F0010E0B6E52EF01F00B6A97
:1002A00052EF01F00BB057EF01F058EF01F0076A81
:1002B0008B9000000000000005B062EF01F08B920F
:1002C00063EF01F08B820000000000008B800000D3
:1002D000000000008B9000000000000005B274EFE9
:1002E00001F08B9275EF01F08B820000000000009E
:1002F0008B800000000000008B90000000000000D8
:1003000005B486EF01F08B9287EF01F08B8200003D
:10031000000000008B800000000000008B900000B7
:100320000000000005B698EF01F08B9299EF01F004
:100330008B820000000000008B80000000000000A5
:100340008B9000000000000005B8AAEF01F08B922E
:10035000ABEF01F08B820000000000008B800000FA
:10036000000000008B9000000000000005BABCEF08
:1003700001F08B92BDEF01F08B82000000000000C5
:100380008B800000000000008B9000000000000047
:1003900005BCCEEF01F08B92CFEF01F08B82000015
:1003A000000000008B800000000000008B90000027
:1003B0000000000005BEE0EF01F08B92E1EF01F0DC
:1003C0008B820000000000008B8000000000000015
:1003D000000E0062F0EF01F0010E0B6EF3EF01F082
:1003E0000B6AF3EF01F00BB0F8EF01F000EF02F051
:1003F00005C001F006C002F007C003F0040E006E55
:0404000080EF00F099
:020000040030CA
:0E0000000008191A0000800003C0030003402E
:00000001FF
