:020000040000FA
:10000000500ED36E7E6A7F6A946A826A8B6A816AB6
:100010008A6A936A8B900000000000008B820000C7
:10002000000000008B800000000000008B900000AA
:10003000000000008B820000000000008B800000A8
:10004000000000008B900000000000008B82000088
:10005000000000008B800000000000008B9000007A
:10006000000000008B820000000000008B80000078
:10007000000000008B900000000000008B82000058
:10008000000000008B800000000000008B9000004A
:10009000000000008B820000000000008B80000048
:1000A000000000008B900000000000008B82000028
:1000B000000000008B800000000000008B9000001A
:1000C000000000008B820000000000008B80000018
:1000D00000000000096A0A6A0B6A850ED56EF29468
:1000E000F29A938A938EAC84190EAF6EB06AAC8A82
:1000F000AB88AC98AB8E006A016A026A036A046A34
:100100008B908B920D6A9EAA89EF00F0AECF0CF017
:100110000D2A0D5202E08FEF00F029EF02F0000EE1
:10012000046297EF00F0010E0E6E9AEF00F00E6A77
:100130009AEF00F00EB09FEF00F0A4EF00F00CC0BB
:1001400004F0056A29EF02F0FF0E0462ACEF00F044
:10015000010E0E6EAFEF00F00E6AAFEF00F00EB0C2
:10016000B4EF00F029EF02F0000E0562BCEF00F0E2
:10017000010E0E6EBFEF00F00E6ABFEF00F00EB082
:10018000C4EF00F0C6EF00F00CC008F0010E0562ED
:10019000CEEF00F0010E0E6ED1EF00F00E6AD1EF3F
:1001A00000F00EB0D6EF00F0D8EF00F00CC007F072
:1001B000020E0562E0EF00F0010E0E6EE3EF00F0BC
:1001C0000E6AE3EF00F00EB0E8EF00F023EF02F06C
:1001D0000CC006F0046A06C009F007C00AF008C0A7
:1001E0000BF08B9000000000000009B0FBEF00F066
:1001F0008B92FCEF00F08B820000000000008B80EF
:100200000000000000008B9000000000000009B218
:100210000DEF01F08B920EEF01F08B8200000000D9
:1002200000008B800000000000008B9000000000A8
:10023000000009B41FEF01F08B9220EF01F08B82D8
:100240000000000000008B800000000000008B9088
:1002500000000000000009B631EF01F08B9232EF90
:1002600001F08B820000000000008B800000000085
:1002700000008B9000000000000009B843EF01F07F
:100280008B9244EF01F08B820000000000008B8015
:100290000000000000008B9000000000000009BA80
:1002A00055EF01F08B9256EF01F08B8200000000B9
:1002B00000008B800000000000008B900000000018
:1002C000000009BC67EF01F08B9268EF01F08B82B0
:1002D0000000000000008B800000000000008B90F8
:1002E00000000000000009BE79EF01F08B927AEF68
:1002F00001F08B820000000000008B8000000000F5
:100300000000000E006289EF01F0010E0E6E8CEF0E
:1003100001F00E6A8CEF01F00EB091EF01F099EF51
:1003200001F009C001F00AC002F00BC003F0040E96
:10033000006E136A090E0B62A2EF01F0010E0E6E41
:10034000A5EF01F00E6AA5EF01F00EB0AAEF01F0E3
:10035000CCEF01F0000E0A62B2EF01F0010E0E6E5A
:10036000B5EF01F00E6AB5EF01F00EB0BAEF01F093
:10037000CCEF01F009500962C2EF01F0010E0E6EE0
:10038000C5EF01F00E6AC5EF01F00EB0CAEF01F043
:10039000CCEF01F0010E136E13B0D1EF01F0DEEFE0
:1003A00001F08B8000000000000000000000000051
:1003B000000000000000000000008B90136A130E84
:1003C0000B62E7EF01F0010E0E6EEAEF01F00E6A2C
:1003D000EAEF01F00EB0EFEF01F011EF02F0000EC6
:1003E0000A62F7EF01F0010E0E6EFAEF01F00E6AED
:1003F000FAEF01F00EB0FFEF01F011EF02F009503B
:10040000096207EF02F0010E0E6E0AEF02F00E6AAB
:100410000AEF02F00EB00FEF02F011EF02F0010E42
:10042000136E13B016EF02F023EF02F08B82000080
:1004300000000000000000000000000000000000BC
:10044000000000008B9205C015F0010E152615C0A6
:1004500005F0136A000E006232EF02F0010E0E6E1C
:1004600035EF02F00E6A35EF02F00EB03AEF02F00F
:100470003CEF02F095EF02F0040E006244EF02F050
:10048000010E0E6E47EF02F00E6A47EF02F00EB05B
:100490004CEF02F04DEF02F01368030E006255EFCF
:1004A00002F0010E0E6E58EF02F00E6A58EF02F0E5
:1004B0000EB05DEF02F05FEF02F003C013F0020E2A
:1004C000006267EF02F0010E0E6E6AEF02F00E6A34
:1004D0006AEF02F00EB06FEF02F071EF02F002C0AF
:1004E00013F0010E006279EF02F0010E0E6E7CEF48
:1004F00002F00E6A7CEF02F00EB081EF02F083EFA3
:1005000002F001C013F09EA889EF02F013C0ADFF06
:100510000D2A0D5202E08FEF02F095EF02F000C0BD
:1005200019F0010E195E19C000F0F2A414EF04F0E6
:10053000F294C20ED76EF60ED66E09C019F0010EF7
:10054000192619C009F03C0E0962ABEF02F0010E4A
:100550000E6EAEEF02F00E6AAEEF02F00EB0B3EF29
:1005600002F0E2EF02F0096A0AC01BF0010E1B263E
:100570001BC00AF03C0E0A62C2EF02F0010E0E6EC2
:10058000C5EF02F00E6AC5EF02F00EB0CAEF02F03E
:10059000E2EF02F00A6A0BC01DF0010E1D261DC01D
:1005A0000BF0180E0B62D9EF02F0010E0E6EDCEFAD
:1005B00002F00E6ADCEF02F00EB0E1EF02F0E2EFC3
:1005C00002F00B6A8B9000000000000009B0ECEF15
:1005D00002F08B92EDEF02F08B8200000000000031
:1005E0008B800000000000008B90000000000000E5
:1005F00009B2FEEF02F08B92FFEF02F08B82000057
:10060000000000008B800000000000008B900000C4
:100610000000000009B410EF03F08B9211EF03F01B
:100620008B820000000000008B80000000000000B2
:100630008B9000000000000009B622EF03F08B92BF
:1006400023EF03F08B820000000000008B8000008D
:10065000000000008B9000000000000009B834EF9B
:1006600003F08B9235EF03F08B8200000000000056
:100670008B800000000000008B9000000000000054
:1006800009BA46EF03F08B9247EF03F08B8200002C
:10069000000000008B800000000000008B90000034
:1006A0000000000009BC58EF03F08B9259EF03F0F3
:1006B0008B820000000000008B8000000000000022
:1006C0008B9000000000000009BE6AEF03F08B92DF
:1006D0006BEF03F08B820000000000008B800000B5
:1006E00000000000000E00627AEF03F0010E0E6EB3
:1006F0007DEF03F00E6A7DEF03F00EB082EF03F0A2
:100700008AEF03F009C001F00AC002F00BC003F049
:10071000040E006E1E6A090E0B6293EF03F0010EC9
:100720000E6E96EF03F00E6A96EF03F00EB09BEF9D
:1007300003F0BDEF03F0000E0A62A3EF03F0010E19
:100740000E6EA6EF03F00E6AA6EF03F00EB0ABEF4D
:1007500003F0BDEF03F009500962B3EF03F0010E9F
:100760000E6EB6EF03F00E6AB6EF03F00EB0BBEFFD
:1007700003F0BDEF03F0010E1E6E1EB0C2EF03F0DA
:10078000CFEF03F08B8000000000000000000000AD
:100790000000000000000000000000008B901E6AB6
:1007A000130E0B62D8EF03F0010E0E6EDBEF03F0B9
:1007B0000E6ADBEF03F00EB0E0EF03F002EF04F09F
:1007C000000E0A62E8EF03F0010E0E6EEBEF03F08D
:1007D0000E6AEBEF03F00EB0F0EF03F002EF04F05F
:1007E00009500962F8EF03F0010E0E6EFBEF03F003
:1007F0000E6AFBEF03F00EB000EF04F002EF04F01E
:10080000010E1E6E1EB007EF04F014EF04F08B8291
:1008100000000000000000000000000000000000D8
:0C0820000000000000008B9282EF00F04E
:020000040030CA
:0E0000000008191A0000800003C0030003402E
:00000001FF
