:020000040000FA
:10000000500ED36E7E6A7F6A946A826A8B6A816AB6
:100010008A6A936A8B900000000000008B820000C7
:10002000000000008B800000000000008B900000AA
:10003000000000008B820000000000008B800000A8
:10004000000000008B900000000000008B82000088
:10005000000000008B800000000000008B9000007A
:10006000000000008B820000000000008B80000078
:10007000000000008B900000000000008B82000058
:10008000000000008B800000000000008B9000004A
:10009000000000008B820000000000008B80000048
:1000A000000000008B900000000000008B82000028
:1000B000000000008B800000000000008B9000001A
:1000C000000000008B820000000000008B80000018
:1000D00000000000096A0A6A0B6A850ED56EF29468
:1000E000F29A938A938EAC84190EAF6EB06AAC8A82
:1000F000AB88AC98AB8E006A016A026A036A086A30
:100100000D6A9EAA87EF00F0AECF0CF00D2A0D52BB
:1001100002E08DEF00F09DEF01F0000E086295EF18
:1001200000F0010E0E6E98EF00F00E6A98EF00F0EE
:100130000EB09DEF00F0A2EF00F00CC008F0046AD2
:100140009DEF01F0FF0E0862AAEF00F0010E0E6EA7
:10015000ADEF00F00E6AADEF00F00EB0B2EF00F0C0
:100160009DEF01F0000E0462BAEF00F0010E0E6E7A
:10017000BDEF00F00E6ABDEF00F00EB0C2EF00F070
:10018000C4EF00F00CC007F0010E0462CCEF00F0E9
:10019000010E0E6ECFEF00F00E6ACFEF00F00EB042
:1001A000D4EF00F0D6EF00F00CC006F0020E0462AF
:1001B000DEEF00F0010E0E6EE1EF00F00E6AE1EFEF
:1001C00000F00EB0E6EF00F097EF01F00CC005F084
:1001D000086A05C009F006C00AF007C00BF08B9052
:1001E00000000000000009B0F9EF00F08B92FAEF78
:1001F00000F08B820000000000008B8000000000F7
:1002000000008B9000000000000009B20BEF01F02D
:100210008B920CEF01F08B820000000000008B80BD
:100220000000000000008B9000000000000009B4F6
:100230001DEF01F08B921EEF01F08B820000000099
:1002400000008B800000000000008B900000000088
:10025000000009B62FEF01F08B9230EF01F08B8296
:100260000000000000008B800000000000008B9068
:1002700000000000000009B841EF01F08B9242EF4E
:1002800001F08B820000000000008B800000000065
:1002900000008B9000000000000009BA53EF01F04D
:1002A0008B9254EF01F08B820000000000008B80E5
:1002B0000000000000008B9000000000000009BC5E
:1002C00065EF01F08B9266EF01F08B820000000079
:1002D00000008B800000000000008B9000000000F8
:1002E000000009BE77EF01F08B9278EF01F08B826E
:1002F0000000000000008B80000000000000000EE5
:10030000006287EF01F0010E0E6E8AEF01F00E6AB7
:100310008AEF01F00EB08FEF01F097EF01F009C006
:1003200001F00AC002F00BC003F0040E006E04C01E
:1003300013F0010E132613C004F0116A000E0062C0
:10034000A6EF01F0010E0E6EA9EF01F00E6AA9EF03
:1003500001F00EB0AEEF01F0B0EF01F009EF02F0E6
:10036000040E0062B8EF01F0010E0E6EBBEF01F05B
:100370000E6ABBEF01F00EB0C0EF01F0C1EF01F06B
:100380001168030E0062C9EF01F0010E0E6ECCEF92
:1003900001F00E6ACCEF01F00EB0D1EF01F0D3EF17
:1003A00001F003C011F0020E0062DBEF01F0010E5C
:1003B0000E6EDEEF01F00E6ADEEF01F00EB0E3EF3D
:1003C00001F0E5EF01F002C011F0010E0062EDEF67
:1003D00001F0010E0E6EF0EF01F00E6AF0EF01F089
:1003E0000EB0F5EF01F0F7EF01F001C011F09EA89B
:1003F000FDEF01F011C0ADFF0D2A0D5202E003EF39
:1004000002F009EF02F000C017F0010E175E17C0EE
:1004100000F0F2A4FEEF02F0F294C20ED76EF60ED8
:10042000D66E09C017F0010E172617C009F03C0E52
:1004300009621FEF02F0010E0E6E22EF02F00E6A4B
:1004400022EF02F00EB027EF02F056EF02F0096A39
:100450000AC019F0010E192619C00AF03C0E0A62F2
:1004600036EF02F0010E0E6E39EF02F00E6A39EF30
:1004700002F00EB03EEF02F056EF02F00A6A0BC037
:100480001BF0010E1B261BC00BF0180E0B624DEF6C
:1004900002F0010E0E6E50EF02F00E6A50EF02F005
:1004A0000EB055EF02F056EF02F00B6A8B90000091
:1004B0000000000009B060EF02F08B9261EF02F0E3
:1004C0008B820000000000008B8000000000000014
:1004D0008B9000000000000009B272EF02F08B92D6
:1004E00073EF02F08B820000000000008B800000A0
:1004F000000000008B9000000000000009B484EFB1
:1005000002F08B9285EF02F08B8200000000000069
:100510008B800000000000008B90000000000000B5
:1005200009B696EF02F08B9297EF02F08B820000F3
:10053000000000008B800000000000008B90000095
:100540000000000009B8A8EF02F08B92A9EF02F0BA
:100550008B820000000000008B8000000000000083
:100560008B9000000000000009BABAEF02F08B92F5
:10057000BBEF02F08B820000000000008B800000C7
:10058000000000008B9000000000000009BCCCEFD0
:1005900002F08B92CDEF02F08B8200000000000091
:1005A0008B800000000000008B9000000000000025
:1005B00009BEDEEF02F08B92DFEF02F08B820000CB
:1005C000000000008B80000000000000000E0062B0
:1005D000EEEF02F0010E0E6EF1EF02F00E6AF1EF97
:1005E00002F00EB0F6EF02F0FEEF02F009C001F0EB
:1005F0000AC002F00BC003F0040E006E80EF00F0A2
:020000040030CA
:0E0000000008191A0000800003C0030003402E
:00000001FF
