:020000040000FA
:10000000850ED56EF294F29A938A938EAC84190E73
:10001000AF6EB06AAC8AAB88AC98AB8E006A016AEE
:10002000036A9EAA17EF00F0AECF02F0032A035234
:1000300002E01DEF00F030EF00F00150046225EF08
:1000400000F0010E046E28EF00F0046A28EF00F0C3
:10005000045202E02EEF00F030EF00F001C002F099
:10006000F2A43CEF00F0F294C20ED76EF60ED66EFC
:0C00700005C002F0010E052610EF00F0A4
:020000040030CA
:0E0000000008191A0000800003C0030003402E
:00000001FF
