:020000040000FA
:10000000850ED56EF294F29A938A938EAC84190E73
:10001000AF6EB06AAC8AAB88AC98AB8E006A016AEE
:10002000036A9EAA17EF00F0AECF02F0032A035234
:1000300002E01DEF00F02FEF00F0000E016225EF4F
:1000400000F0010E046E28EF00F0046A28EF00F0C3
:1000500004B02DEF00F02FEF00F001C002F0F2A489
:1000600091EF00F0F294C20ED76EF60ED66E07C076
:1000700004F0010E072604C007F03C0E046245EFB1
:1000800000F0010E086E48EF00F0086A48EF00F03B
:1000900008B04DEF00F07BEF00F0046A09C005F0F6
:1000A000010E092605C009F03C0E05625CEF00F068
:1000B000010E086E5FEF00F0086A5FEF00F008B015
:1000C00064EF00F07BEF00F00BC006F0010E0B2692
:1000D00006C00BF0180E066272EF00F0010E086EFB
:1000E00075EF00F0086A75EF00F008B07AEF00F0E5
:1000F0007BEF00F0066A000E006283EF00F0010E55
:10010000086E86EF00F0086A86EF00F008B08BEF0B
:1001100000F091EF00F00DC004F00EC005F00FC02C
:0601200006F010EF00F0F4
:020000040030CA
:0E0000000008191A0000800003C0030003402E
:00000001FF
