:020000040000FA
:10000000500ED36E7E6A7F6A946A826A8B6A816AB6
:100010008A6A936A8B900000000000008B820000C7
:10002000000000008B800000000000008B900000AA
:10003000000000008B820000000000008B800000A8
:10004000000000008B900000000000008B82000088
:10005000000000008B800000000000008B9000007A
:10006000000000008B820000000000008B80000078
:10007000000000008B900000000000008B82000058
:10008000000000008B800000000000008B9000004A
:10009000000000008B820000000000008B80000048
:1000A000000000008B900000000000008B82000028
:1000B000000000008B800000000000008B9000001A
:1000C000000000008B820000000000008B80000018
:1000D00000000000850ED56EF294F29A938A938EFA
:1000E000AC84190EAF6EB06AAC8AAB88AC98AB8E9C
:1000F000006A016A036A9EAA81EF00F0AECF02F0A7
:10010000032A035202E087EF00F099EF00F0000E9F
:1001100001628FEF00F0010E046E92EF00F0046AAE
:1001200092EF00F004B097EF00F099EF00F002C0FA
:1001300001F0046A000E0062A2EF00F0010E056EED
:10014000A5EF00F0056AA5EF00F005B0AAEF00F0FA
:10015000ACEF00F005EF01F0040E0062B4EF00F028
:10016000010E056EB7EF00F0056AB7EF00F005B0BD
:10017000BCEF00F0BDEF00F00468030E0062C5EFB5
:1001800000F0010E056EC8EF00F0056AC8EF00F040
:1001900005B0CDEF00F0CFEF00F00AC004F0020E82
:1001A0000062D7EF00F0010E056EDAEF00F0056A8D
:1001B000DAEF00F005B0DFEF00F0E1EF00F009C08A
:1001C00004F0010E0062E9EF00F0010E056EECEFA5
:1001D00000F0056AECEF00F005B0F1EF00F0F3EF8E
:1001E00000F008C004F09EA8F9EF00F004C0ADFFD5
:1001F000032A035202E0FFEF00F005EF01F000C018
:100200000DF0010E0D5E0DC000F0F2A469EF01F0DB
:10021000F294C20ED76EF60ED66E0DC010F0010E1F
:10022000102610C00DF03C0E0D621BEF01F0010E08
:10023000056E1EEF01F0056A1EEF01F005B023EF19
:1002400001F051EF01F00D6A0EC012F0010E1226FE
:1002500012C00EF03C0E0E6232EF01F0010E056E80
:1002600035EF01F0056A35EF01F005B03AEF01F026
:1002700051EF01F00FC014F0010E142614C00FF05E
:10028000180E0F6248EF01F0010E056E4BEF01F002
:10029000056A4BEF01F005B050EF01F051EF01F0AE
:1002A0000F6A000E006259EF01F0010E056E5CEF5F
:1002B00001F0056A5CEF01F005B061EF01F069EF54
:1002C00001F00DC008F00EC009F00FC00AF0040ED6
:0602D000006E7AEF00F061
:020000040030CA
:0E0000000008191A0000800003C0030003402E
:00000001FF
